:1000000000800020B1010000DD010000DD010000E2
:10001000DD010000DD010000DD010000DD01000068
:10002000DD010000DD010000DD010000DD01000058
:10003000DD010000DD010000DD010000DD01000048
:100040003D0E00000114000039140000DD01000025
:10005000DD010000DD010000DD010000DD01000028
:10006000DD010000DD010000DD0100001D140000C5
:10007000DD010000DD010000DD010000DD01000008
:10008000DD010000DD010000DD010000DD010000F8
:10009000DD010000DD010000DD010000DD010000E8
:1000A000DD010000DD010000DD010000DD010000D8
:1000B000DD010000DD010000DD010000DD010000C8
:1000C000DD010000DD010000DD010000DD010000B8
:1000D000DD010000DD010000DD010000DD010000A8
:1000E00010B5054C237833B9044B13B10448AFF372
:1000F00000800123237010BD7C0000200000000060
:1001000028270000084B10B51BB108480849AFF379
:1001100000800848036803B910BD074B002BFBD0D3
:10012000BDE81040184700BF00000000282700006D
:10013000800000207800002000000000154B002BFC
:1001400008BF134B9D46A3F5803A00218B460F460E
:100150001348144A121A02F078FA0F4B002B00D001
:1001600098470E4B002B00D0984700200021040038
:100170000D000D48002802D00C48AFF3008002F0BB
:1001800033FA2000290001F02FFA02F019FA00BF1B
:1001900000000800008000200000000000000000B7
:1001A0007C000020A00000200000000000000000F3
:1001B000064880470649074A074B9A42BEBF51F896
:1001C000040B42F8040BF8E7FFF7B8FF3103000017
:1001D00060280000000000207C000020FEE700BF37
:1001E00080B400AF044BDB6C1B0EDBB21846BD467F
:1001F0005DF8047B704700BFB081E00F80B582B02E
:1002000000AF00F015F87860074B5B6803F00F0350
:100210001A467B68D3407B60044A7B6813607B6826
:1002200018460837BD4680BD00800C4008000020FD
:1002300080B582B000AF334BDB6A03F47053B3F583
:10024000805F0AD0B3F5005F03D0B3F5006F08D02C
:100250000BE02D4B1B687B6047E04FF400437B6055
:1002600043E02A4B1B687B603FE0264BDB6803F4CE
:10027000E063B3F5007F1BD0B3F5007F05D8002BFA
:1002800024D0B3F5807F16D02BE0B3F5806F09D072
:10029000B3F5A06F03D0B3F5407F06D021E01C4B2F
:1002A0007B6021E01B4B7B601EE01B4B7B601BE0F7
:1002B0001A4B7B6018E0FFF793FF0346122B02D91D
:1002C000174B7B6010E0174B7B600DE0FFF788FF5A
:1002D0000346122B02D9144B7B6005E0134B7B6065
:1002E00002E000237B6000BF00BF064B1B6803F4E5
:1002F000E0339B0B01337A68B2FBF3F318460837FF
:10030000BD4680BD00800C4004000020000000209D
:10031000003FAB01406F4001809FD500C0D8A700CF
:1003200040B56400C0CF6A00804F120040420F0009
:1003300080B400AF054A054BD3F8883043F470030E
:10034000C2F88830BD465DF8047B704700ED00E0E0
:1003500080B400AF4FF400431846BD465DF8047BFF
:10036000704700BF80B400AF4FF47A731846BD46A3
:100370005DF8047B704700BF80B400AF034B1B687F
:100380001846BD465DF8047B704700BF040000209E
:1003900080B489B000AF78600B46FB701346BB7029
:1003A000BB78002B04D010237B61444BBB6103E07E
:1003B00000237B61424BBB617B685A6BBB69134076
:1003C0003B610023FB617B683E4A934216D13E4B62
:1003D000FB60FB78062B61D801A252F823F000BF26
:1003E000FF0300001D04000041040000630400003E
:1003F0009D0400009D0400008B04000058E0FB6891
:100400001B6803F4FE43FA691343FB61FB681B6836
:1004100003F07F03FA691343FB6142E0FB681B684A
:1004200003F0FE431B0E1B02FA691343FB61FB68DA
:100430001B6803F4FE031B0CFA691343FB6130E0F5
:10044000FB6804331B6803F4FE43FA691343FB6142
:10045000FB6804331B6803F07F03FA691343FB61F5
:100460001FE0FB6804331B6803F0FE431B0E1B02F6
:10047000FA691343FB61FB6804331B6803F4FE0352
:100480001B0CFA691343FB610BE0FB6808331B6824
:1004900003F07F03FA691343FB6102E00023FB6171
:1004A00000BF7B69FA699A403B691A437B685A63CB
:1004B0002437BD465DF8047B704700BFFFFF808096
:1004C0008080FFFF00200040B481E00F80B584B041
:1004D00000AF786039603B681B79FB72FB7A002BB8
:1004E00006D11B48002100F083F80346FB7208E0A8
:1004F0001748002100F07CF84FF4FA40002100F08A
:1005000077F87B680A225A603B681B781A063B68BA
:10051000DB781B0403F4FE031A43FB7A1B0203F48B
:10052000FE431A433B685B781B0113433A68927899
:100530001343FB603B685B79002B03D0FB6843F0FF
:100540000803FB607B68FA681A601037BD4680BDFF
:10055000405DC60080B584B000AF786039607B68CC
:1005600002225A603B689B78786819460022FFF7A0
:100570000FFF3B681B781A073B685B781B051A4323
:100580003B681B791B0213431A463B68DB781B014F
:100590001343FB603B689B79002B03D0FB6843F05F
:1005A0008073FB603B68DB79002B03D0FB6843F072
:1005B0000403FB603B685B79002B03D0FB6843F0CE
:1005C0000203FB603B681B7A002B03D0FB6843F0FF
:1005D0000103FB603B689B781B041A46FB681343CE
:1005E000FB607B68FA68DA601037BD4680BD00BFEB
:1005F00080B584B000AF786039607B68134A93425D
:1006000002D9124B7B6006E07B68B3F5FA4F02D249
:100610004FF4FA437B603B68002B03D10C4800F099
:1006200073FA38603A687B6813445A1E7B68B2FBE1
:10063000F3F3FB60FB68002B02D0FB68013BFB601F
:10064000FB68DBB218461037BD4680BD405DC60072
:100650004081040080B582B000AF78607B68002BD9
:1006600008D1114800F050FA78607B68002B01D166
:1006700001237B607B680D4A934201D90B4B7B6061
:100680007B6803F5742303F23F237B607B68084A91
:10069000A2FB03239B0C7B607B68DBB2013BDBB2DC
:1006A00018460837BD4680BD408104000048E80177
:1006B00083DE1B4380B487B000AFF860B9607A6016
:1006C000FB6803F10473DA00BB6813449B007B6191
:1006D0007B697A681A601C37BD465DF8047B7047F9
:1006E00080B485B000AF786039607B6803F1047333
:1006F000DA003B6813449B00FB60FB681B681846EC
:100700001437BD465DF8047B704700BF80B485B0E8
:1007100000AF78607B68002B04D07B68B3F5004F96
:1007200000D800BF7B68B3FA83F3C3F11F03FB60FB
:10073000FB6818461437BD465DF8047B704700BF60
:1007400080B400AF044BDB6C1B0EDBB21846BD4619
:100750005DF8047B704700BFB081E00F80B584B0C6
:1007600000AF78600123FB607B68114A934204D894
:100770000023FB600023BB6008E07B680D4A9342C6
:1007800002D80123BB6001E00223BB600A481E219E
:10079000FA68FFF78FFF0849074B5B6823F4807204
:1007A000BB681B0213434B601037BD4680BD00BFC2
:1007B00000366E01006CDC0200800C4080B582B017
:1007C00000AF05481E21FFF78BFF78607B68184655
:1007D0000837BD4680BD00BF00800C4080B582B0A8
:1007E00000AF214B5B6903F4E063B3F5007F1CD0DD
:1007F000B3F5007F05D8002B25D0B3F5807F1FD03F
:100800002AE0B3F5C06F24D0B3F5E06F1ED0B3F586
:10081000407F21D1FFF794FF0346122B02D9134BDF
:100820007B601CE0124B7B6019E0FFF789FF0346F9
:10083000122B02D90F4B7B6011E00F4B7B600EE057
:100840000E4B7B600BE00E4B7B6008E00D4B7B603A
:1008500005E00D4B7B6002E000237B6000BF7B68FE
:1008600018460837BD4680BD00800C40804F1200FE
:1008700040420F0040B56400C0CF6A00C0D8A70056
:10088000809FD500406F4001003FAB0180B582B032
:1008900000AF0D4800F024FA0346FB70FB78072BED
:1008A00005D0092B07D1FFF7C3FC786006E0FFF7FE
:1008B00095FF786002E000237B6000BF7B681846EC
:1008C0000837BD4680BD00BF06000C0090B585B05E
:1008D00000AF78600023BB607B68344A934203D04A
:1008E000334A934200D000E000BF786800F0F8F986
:1008F0000346FB607B682D4A934203D02C4A934207
:1009000006D00CE02B4B9B6A03F00303FB6006E070
:10091000284B9B6A03F00C039B08FB6000BFFB683D
:10092000032B3AD801A252F823F000BF630900005C
:100930003D090000450900004D090000FFF708FDD2
:10094000B8602DE0FFF718FDB86029E0FFF756FC0E
:100950000446FFF733FF0346013324FA03F3BB6079
:100960001EE00023BB607B68104A934203D07B6883
:100970000F4A934210D10F4B9A6A7B680B498B4206
:1009800001D1102300E0142322FA03F3002B03D03B
:10099000FFF7E8FCB86003E002E00023BB6000BFA3
:1009A000BB6818461437BD4690BD00BF02001A0050
:1009B00003001C0000800C4080B483B000AF78605E
:1009C000094B5B6D03F00103002B00D006E000BF74
:1009D000054B1A6D7B681340002BF9D10C37BD46CF
:1009E0005DF8047B704700BF00800C4080B582B08A
:1009F00000AF104800F074F90346FB70FB78032B3E
:100A000007D0092B09D0022B0BD1FFF7B5FC78607A
:100A10000AE0FFF79DFC786006E0FFF709FC7860CC
:100A200002E000237B6000BF7B6818460837BD46A4
:100A300080BD00BF0723220080B586B000AF78607C
:100A40000B46FB7000233B617B681B0A03F00F031E
:100A5000013B092B45D801A252F823F0990A000066
:100A60009F0A0000850A0000E30A0000E30A000074
:100A7000A50A0000AF0A0000E30A0000E30A000034
:100A8000B90A0000194B7B61194800F03DF8034694
:100A90001846FFF763FE12E0164B7B610FE0164B22
:100AA0007B610CE0154B7B6101233B6107E0144B3C
:100AB0007B6110233B6102E0124B7B6100BF7B68CE
:100AC0001B0B03F01F03FB603B69002B02D038694E
:100AD000FFF772FFFB787869F9681A46FFF7EAFDBD
:100AE00000E000BF1837BD4680BD00BF40800C400D
:100AF0000043020008800C4044800C4058800C40A9
:100B000060800C4078800C4090B585B000AF786074
:100B10007B6803F47813B3F5B01F00F0AB80B3F536
:100B2000B01F1AD8B3F5402F00F0BF80B3F5402FA7
:100B300008D8B3F5003F3CD0B3F5802F2DD0002B63
:100B400027D0BEE0B3F5801F3CD0B3F5A01F47D03F
:100B5000B3F5602F00F0AD80B3E0B3F5081F00F0EF
:100B6000AC80B3F5081F0AD8B3F5D01F25D0B3F574
:100B7000E01F7AD0B3F5C01F00F08980A1E0B3F583
:100B8000201F4ED0B3F5281F62D0B3F5181F35D003
:100B900097E0FFF74DFBF86096E0FFF749FBF86040
:100BA0004C4B9B6803F00F031A46FB68D340FB6075
:100BB0008AE0FFF723FBF86086E04748FFF786FEF0
:100BC000F86081E04448FFF781FEF860414B9B6E7E
:100BD00003F0F0031B091A46FB68D340FB6073E087
:100BE0003D48FFF773FEF8603A4B9B6E03F4706369
:100BF0001B0A1A46FB68D340FB6065E03648FFF7E6
:100C000065FEF860334B9B6E03F440531C0B1020C1
:100C1000FFF77CFD034623441A46FB68D340FB6084
:100C200052E02D48FFF752FEF8602A4B9B6E03F40A
:100C300040531B0B1A46FB68D340FB60254BDB6F10
:100C400003F007030133FA68B2FBF3F3FB603BE008
:100C50002148FFF73BFEF8601E4B9B6E03F0030339
:100C60001A46FB68D340FB602EE01C48FFF72EFEBF
:100C7000F86029E01948FFF729FEF860154B1B6F53
:100C800003F003031A46FB68D340FB601CE01348E3
:100C9000FFF71CFEF8600F4B1B6F03F030031B09BE
:100CA0001A46FB68D340FB600EE0FFF7EFFDF860EB
:100CB0000AE0FFF793FDF86006E0FFF797FEF860A3
:100CC00002E00023FB6000BFFB6818461437BD46F6
:100CD00090BD00BF00800C4002001A0003001C0001
:100CE00080B485B000AF78600123FB737B6803F0AC
:100CF0000F03BB60BB68013B062B00F2938001A28F
:100D000052F823F0210D0000570D0000930D000054
:100D1000250E0000250E0000CF0D0000F10D000093
:100D2000454BDB6A03F47053B3F5805F09D0B3F52C
:100D3000005F03D0B3F5006F06D008E00223FB7319
:100D400008E00323FB7305E00423FB7302E00523A3
:100D5000FB7300BF69E0384B9B6A03F00303022B6F
:100D600006D0032B07D0012B08D10323FB730FE020
:100D70000223FB730CE00623FB7309E02E4B9B6AF6
:100D800003F48033002B02D00A23FB7300E000BF82
:100D90004BE0294B9B6A03F00C03082B06D00C2B6D
:100DA00007D0042B08D10323FB730FE00223FB734E
:100DB0000CE00623FB7309E01F4B9B6A03F48013CE
:100DC000002B02D00A23FB7300E000BF2DE01A4B7A
:100DD0001B6803F08053002B03D0B3F1805F03D076
:100DE00023E00723FB7302E00923FB7300BF1CE031
:100DF000114BDB6A03F46033B3F5803F08D0B3F5E1
:100E0000003F08D0B3F5004F08D10923FB7308E079
:100E10000223FB7305E00323FB7302E00123FB7352
:100E200000BF02E00023FB7300BFFB7B18461437B2
:100E3000BD465DF8047B704700800C4080B58AB0E9
:100E400000AF334B03F580531B68BB61304B03F598
:100E500080530C331B68BA691340BB612C4B9B6BEE
:100E60007B61BA697B6913403B620023FB6149E007
:100E700000237B623BE03B6A03F00103002B30D090
:100E8000234B9B683B6101227B6A02FA03F3FB6000
:100E90001F4B03F580530833FA681A607B6A1B0105
:100EA0003A691344DB68BB60BB68002B19D0BB6890
:100EB0001B7A7B60BB681B7A83F00103DAB2BB68E4
:100EC0001A72BB681B68002B0BD0BB681B68786A62
:100ED0007A68002A14BF01220022D1B2BA6852688F
:100EE00098473B6A5B083B627B6A01337B623B6AE3
:100EF000002BC0D17B69DA43BB6913403B62FB69BD
:100F00000133FB61FB69012BB2DD2837BD4680BD93
:100F100000200C4080B487B000AFF860B9607A6000
:100F2000FB6803F10473DA00BB6813449B007B6128
:100F30007B697A681A601C37BD465DF8047B704790
:100F400080B485B000AFF860B9607A60FB681A6859
:100F5000BB68DB431A407B681A43FB681A6014378E
:100F6000BD465DF8047B704780B483B000AF034694
:100F70003960FB71FB79002B0DD0FB79012B0AD076
:100F8000FB79022B07D0FB79032B04D0FB79042BD0
:100F900001D0FB79052B0949FA793B68012000FA59
:100FA00003F318461346DB0013449B000B44103335
:100FB00058600C37BD465DF8047B70470060004008
:100FC00080B483B000AF03463960FB71FB79002B1E
:100FD0000DD0FB79012B0AD0FB79022B07D0FB79CE
:100FE000032B04D0FB79042B01D0FB79052B094995
:100FF000FA793B68012000FA03F318461346DB0038
:1010000013449B000B44103318600C37BD465DF849
:10101000047B70470060004080B586B000AFB960C7
:101020007A601A460346FB731346BB7300237B6149
:10103000FB7B002B0DD0FB7B012B0AD0FB7B022B13
:1010400007D0FB7B032B04D0FB7B042B01D0FB7B65
:10105000052B7B68072B0ED87B689B001A4607235D
:1010600003FA02F1FB7B7A689200934019481A4612
:10107000FFF766FF10E07B68083B7B617B699B00A4
:101080001A46072303FA02F1FB7B7A699200934028
:1010900011481A46FFF754FFBB7B104879681A467F
:1010A000FFF738FF97F820300D4879681A46FFF7A8
:1010B00031FF0C4A7B68012101FA03F3C2F81C31AD
:1010C00097F82430084879681A46FFF723FF183745
:1010D000BD4680BD006100400461004008610040E1
:1010E0000C610040006000401061004090B585B088
:1010F00000AFB9607B600346FB731346BB73FB7B99
:10110000002B0DD0FB7B012B0AD0FB7B022B07D0E1
:10111000FB7B032B04D0FB7B042B01D0FB7B052B3B
:10112000BB7B002B0DD07B68002B05D0FB7B1846CA
:10113000B968FFF745FF04E0FB7B1846B968FFF785
:1011400013FFBB68072B1CD82A4CFA7B2948F97B74
:101150000B46DB000B449B0003445968BB689B00B3
:1011600018460F238340DB430B40B97BB8688000EF
:10117000814019431346DB0013449B00234459600C
:1011800024E01C4CFA7B1B48F97B0B46DB000B442C
:101190009B00034408331968BB6803F18043083B94
:1011A0009B0018460F238340DB431940B87BBB6884
:1011B00003F18043083B9B0000FA03F319431346F5
:1011C000DB0013449B00234408331960BB7B002BD6
:1011D0000DD17B68002B05D0FB7B1846B968FFF763
:1011E000EFFE04E0FB7B1846B968FFF7BDFE14373D
:1011F000BD4690BD0060004080B483B000AF786011
:101200007B680D4A93420BD07B680C4A934207D00F
:101210007B680B4A934203D07B680A4A934201D110
:10122000012300E0002303F00103DBB218460C3772
:10123000BD465DF8047B704700000140000401409A
:1012400000080140000C014080B582B000AF78601A
:1012500039607868FFF7D0FF3B681B7883F00103A3
:10126000DBB2002B02D07B6802225A607B6800222E
:101270005A623B689B781A063B68DB781B041A436A
:101280003B689B799B021A433B68DB791B02134343
:101290003A68127A1A433B685B78002B01D04023EE
:1012A00000E000231A433B685B7A002B01D08023C7
:1012B00000E000231A433B689B7A002B01D02023D7
:1012C00000E000231A433B68DB7A002B01D0102397
:1012D00000E000231A433B681B79002B02D04FF437
:1012E000005300E000231A433B685B79002B02D0D7
:1012F0004FF0805300E000231A433B681B7B002B18
:1013000001D0082300E000231A437B681A603B6881
:101310001B78002B02D07B6801225A600837BD463B
:1013200080BD00BF80B483B000AF0346FB710849A5
:1013300097F907305B09FA7902F01F02012000FAE1
:1013400002F241F823200C37BD465DF8047B70475C
:1013500000E100E080B483B000AF0346FB710949AF
:1013600097F907305B09FA7902F01F02012000FAB1
:1013700002F2603341F823200C37BD465DF8047B50
:10138000704700BF00E100E080B483B000AF786038
:101390007B685B6A18460C37BD465DF8047B704776
:1013A00080B483B000AF78600B46FB70FA787B683E
:1013B0005A600C37BD465DF8047B704790B585B028
:1013C00002AF396011461A460346FB710B46BB71EA
:1013D00013467B71FA79BC797B7900933B7E01934C
:1013E000104639683A682346FFF716FE0C37BD46AB
:1013F00090BD00BF80B400AFBD465DF8047B704770
:1014000080B400AF044A044BD3F81431C2F81C3145
:10141000BD465DF8047B70470060004080B400AFBB
:10142000044A044BD3F81431C2F81C31BD465DF8B0
:10143000047B70470060004080B400AF054B1B691F
:101440000449044A926913438B61BD465DF8047BED
:10145000704700BF0000014080B582B002AF17485E
:101460000121FFF7E9FA0120092101220123FFF7F9
:101470003DFE012300930120092100220123FFF7F3
:101480009DFF01200A2101220123FFF72FFE0123E6
:10149000009301200A2100220123FFF78FFF012082
:1014A000FFF758FF0120FFF73DFF0B20FFF752FF2A
:1014B0000B20FFF737FFBD4680BD00BF00D2040000
:1014C00080B586B000AF20480121FFF7B5FA0023B0
:1014D0003B7400237B740023BB741F23FB74002325
:1014E0003B7500237B7500233B7100237B71002338
:1014F000BB710023FB7100233B7200237B7200232E
:10150000BB720023FB7200233B730020FFF7A2F89D
:101510000346FB740D480021FFF76AF803463B754C
:101520000323BB7407F1100309481946FEF7CEFFE9
:1015300009233B7205237B713B1D05481946FFF7C4
:1015400009F81837BD4680BD00020500C0D8A700C5
:101550000020004080B400AFBD465DF8047B7047BA
:1015600080B584B000AF1E480121FFF765FA012362
:101570003B7000237B700023BB700023FB700023B3
:101580003B7100237B710023BB710023FB7100239F
:101590003B7200237B720023BB720023FB7200238B
:1015A0003B73104A0F4B9B6943F001039361022088
:1015B000FFF7D0FE0220FFF7B5FE0A4A094BDB68B1
:1015C00043F00103D360074B40F23D12DA613B4622
:1015D00004481946FFF738FE1037BD4680BD00BFEE
:1015E000005204000000014080B500AFFFF702FF89
:1015F000FFF732FFFFF764FFFFF7ACFFFFF7B0FF25
:101600000B480121FFF7CCFE00BF094B9B6803F09C
:101610000103002B14BF01230023DBB2002BF4D104
:101620000348FFF7B1FE0246024B1A60E8E700BF2D
:10163000002000409800002003685A004CBF43F08F
:10164000004323F000431844704700BF2DE9F04FDA
:1016500083B099B34B1E1746054601939846002662
:1016600006EB080404EBD47464104FEAC40A05EBDB
:101670000A0B5846FFF7E0FF019B8146A3420AF19F
:10168000080028440ED0FFF7D7FFB94500F1FF301E
:1016900004D9B4420CD004F1FF38E1E7B84203D2D8
:1016A000661CDDE7B945F4D8584603B0BDE8F08FB5
:1016B0004FF0000B584603B0BDE8F08F8B465846FC
:1016C00003B0BDE8F08F00BF012807D0022807D083
:1016D000044B00280CBF1846002070470248704792
:1016E00002487047D51D0000D91D0000DD1D000017
:1016F00030B5244B83B004468D1E7BB3284601A928
:10170000AFF3008020B301992A46FFF79FFF0546FB
:10171000F0B1FFF791FF6B68A064012B12D0002B92
:1017200005F1040020DBFFF787FF0023E064236559
:101730000368002B1CDBFFF77FFF002320611846A6
:1017400003B030BD002323610523184603B030BD2C
:10175000002323610923184603B030BD0A490B4812
:10176000091AC9100191CFE70123E0642365DFE77F
:10177000C3F30360FFF7A8FF002820610CBF092313
:101780000023DCE70000000060280000682700005C
:101790000368DA0710B5044606D49B0700F1480039
:1017A00009D500F085FC2368590709D51A070ED51D
:1017B000DB0613D510BD00F073FC23685907F5D480
:1017C00004F1D00000F07CFC23681A07F0D404F583
:1017D000A87000F07DFC2368DB06EBD404F5E8700C
:1017E000BDE8104000F0B8BC03680BB11844704766
:1017F0001846704709207047704700BF70B504460F
:101800000D4608E02B6C63610120236921462A46BE
:101810009847082808D12046296CFFF769FF06463B
:101820000028EFD000F0C4FE0728FBD13046296C19
:10183000FFF7E2FF281D00F027FC00BF2DE9F0476D
:101840000C1D064617460FCCADF5727D03AD0FC5D6
:101850000FCC0FC50FCC0FC594E80F0002AC4FF0B2
:10186000000ED6F80C80D6F8189085E80F003046A8
:10187000216CC4F800E0FFF73BFF002F05460CBFCA
:1018800009270A277DB1A36B47F010018DE81002EC
:101890000120636432463346C04778BB28460DF5C5
:1018A000727DBDE8F087236C736121464FF4F072BE
:1018B0007AA800F0BFFE336931467AAA38469847C5
:1018C000889B82468DE810023946636401203246C7
:1018D0003346C04790B920467AA94FF4F07200F021
:1018E000A9FEBAF1080F06D13046216CFFF700FFC0
:1018F00009270546C6E7BAF1070F04D009200DF500
:10190000727DBDE8F0872846216CFFF775FF03A8BC
:1019100000F0BAFB406C7047F0B5CB6B0B640E1D4A
:101920000F4604460FCEF9B001AD0FC50FCE0FC55F
:101930000FCE0FC596E80F004FF0FF3685E80F0079
:10194000009606E0236921466A469847082805461E
:1019500008D120461099FFF7CBFE0028F2D00920CD
:1019600079B0F0BD6846FFF713FF062DF7D120468A
:101970003946FFF743FF00BF30B4DD6BC1608261C1
:1019800019461D64002230BC58E700BF70B5C66818
:1019900043690B6404460D4626B10122FFF74EFF52
:1019A00000F006FE0369214602202A4698470728D0
:1019B00007D0082803D120462946FFF71FFF00F073
:1019C000F7FD3046296CFFF717FF281D00F05CFB80
:1019D000C2681AB1CA6B0A6400222FE79CE700BFF5
:1019E000704700BF836813B1014601201847704754
:1019F00000B5042907D8DFE801F00309060909004A
:101A00000BB90F2A05D902205DF804FB01205DF80F
:101A100004FB00EB820218465368019A13605DF8DC
:101A200004FB00BF00B585B00A4603AB002100935C
:101A30000B46FFF7DDFF039805B05DF804FB00BF20
:101A400000B5042907D8DFE801F0030906090900F9
:101A50000BB90F2A05D902205DF804FB01205DF8BF
:101A600004FB019900EB82020968516018465DF899
:101A700004FB00BF10B584B004AB0C4643F8042D42
:101A80000021009322460B46FFF7DAFF04B010BD99
:101A9000F0B5D36B1364151D07460E460FCDADF59B
:101AA0000F7D17AC0FC40FCD0FC40FCD0FC495E839
:101AB0000F004FF0FF3584E80F00169510E016A8D0
:101AC000FFF7D8FF314616A8B847694616AA78B975
:101AD000049B08209847052804460AD0092807D007
:101AE00026996846FFF704FE6A460C210028E6D0D6
:101AF000092416A8FFF74CFE20460DF50F7DF0BD1A
:101B00002DE9F04F0D46C96C8BB00C1D096807918B
:101B10009046089400F003091E46002B64D1090288
:101B2000032307918DF825608DF824302B6DB9F1D2
:101B3000020F08BFAC6B13F0010343D100F00800A3
:101B4000C2B2039201932768002F3DD0022E47D0E6
:101B50002788B4F802A00434AB6C2AF0010B40468D
:101B60000F219B44FFF75EFF834537D827F0010321
:101B70009B4458452CBF002001200AF0010A07F0C1
:101B8000010747EA4A0ABAF1010F43D03AD3BAF142
:101B9000020F1FD1236823F000420292B9F1000F17
:101BA0007BD138B1039A002A00F08380029A002A80
:101BB00000F0A680002B7ADB029B03F1010A04EB04
:101BC0008A04C0E700230193022E40DDFFF712FED6
:101BD000002842D009200BB0BDE8F08F0020CCE7F0
:101BE000D4F804A00834B7E7022B9FDC0B0CDFB25B
:101BF000090402228DF8253004EB870407918DF843
:101C0000242093E7B9F1000F02D0002840F0AD8006
:101C1000043498E7B9F1000F26D1B0B194E80C0074
:101C2000D70F9A1CD6D005F158020133069200F066
:101C30009280201DFFF7D8FD3A46014606AB2846A4
:101C4000AFF30080002840F0B58008347BE74046C1
:101C500007A900F01BFB0028BCD1019B002B59D128
:101C600008200BB0BDE8F08F40460D212F6AFFF72A
:101C7000D9FE8742E9D1AB6A9C42E6D12046FFF704
:101C8000DBFC0F2102464046FFF7F4FE40462A46A1
:101C90000021FFF7EFFE07209DE740460D212F6A48
:101CA000FFF7C0FE874245D02368002B84DA043456
:101CB00082E7029B23B305F15803059604F1040A59
:101CC000039FDDF808B0CDF810901E4602E0D9451C
:101CD0004F4615D050460696FFF786FD0022014676
:101CE00006AB2846AFF3008007F101090AF1040AA8
:101CF0000028ECD0029BDDF81090059E9F42D3D1C6
:101D000040460D21FFF78EFE069B2862AC626B6297
:101D1000062060E70F214046FFF784FE0E210246B1
:101D20004046FFF7A7FE40460F21294AFFF7A2FED3
:101D3000072050E7AB6A9C42B6D104220027A318C3
:101D40000299A962EF622A636B632368BB421FDBBF
:101D50000123019330E740460D21FFF763FE28621F
:101D6000069B6B62AC62062035E72046FFF764FCF9
:101D700004340646AC632846AFF3008000283FF4E5
:101D800029AF404632460F21FFF774FE072022E7B5
:101D90000846013004EB8000FFF74EFC0F2102469D
:101DA0004046FFF767FE404639462A46FFF762FE87
:101DB000072010E707460D214046FFF733FE022FAC
:101DC0002862CDD12B46069A43F82C2F6B62C9E7C7
:101DD00000000000002393E6012391E602238FE632
:101DE000F0B50546C5B004290CD8DFE801F056036C
:101DF0000B300E00012B4FEA124496B265D0052B32
:101E000000F08480022045B0F0BD002BFAD1102AEA
:101E1000F8D82B68DC0600F1EB8022AE3046019248
:101E200000F0A4F9A86B019A0023012404FA03F13D
:101E3000114203D0016846F8231004300133042B0B
:101E4000F4D1A863304600F087F90020DBE7032BCC
:101E5000D8D1140C97B23B19102BD3D82B681E077E
:101E600000F1E68022AE30467F0000F053F906EB29
:101E7000C4027B1EAC6B57B1043A214651F8040BE7
:101E800042F8040F013B581CF8D104EB870430469C
:101E9000AC6300F01DF90020B5E7002BB2D1AC6BAC
:101EA00097B2281D012606FA03F1394203F1010316
:101EB00002D0216801600434102B00F10400F2D13B
:101EC00012F4005020D1AC639DE73219102A99D842
:101ED0000F2C97D82968C8074FF0000755D422A8BF
:101EE000019300F0E1F8019B19E008463746012B09
:101EF00000F098800F2CA86302D822A800F0D8F830
:101F000017B102A800F0DCF800207CE73719202F79
:101F10003FF678AF0F2C30D93746002E45D1A96B4C
:101F20003246002EE1D0002744A84FEA420C00EBD5
:101F3000C4000CF1FF328C388E465EF8046B40F81A
:101F4000046F013A561CF8D101EB8C00002FCED063
:101F5000102C224644A938BF102201EBC202A2F580
:101F6000C47201467800043A01EB800051F8046B1A
:101F700042F8046F8142F9D1B9E7102F42D92A689B
:101F8000D007A7F11007114610D521F00102052B4B
:101F90002A60019328465BD021F0030140F8481BDA
:101FA00000F082F8019B002F4AD02A6851075BD4C9
:101FB000012B63D00F2C04D822A8019300F07CF8E9
:101FC000019B002FABD002A8019300F07DF8019B8C
:101FD000A96BC4F11002002AA6DC102C224644A8EA
:101FE00038BF102200EBC202A2F5C4727800BAE733
:101FF00023F010032B6005F5E870019200F0B6F8AD
:10200000019A0AE72968C8071DD521F00102284670
:1020100042F0020240F8482B0193002700F04CF8F0
:10202000019BC9E70430A86322A800F039F86BE7E8
:1020300023F008032B6005F5A87000F06BF811E79A
:10204000012B3FF44CAF0F2C98BF0027B4D966E7A3
:1020500042F0020240F8482B00F02EF8019B002FBE
:10206000AAD02A685107A5D5284622F0040240F8D4
:10207000D02B019300F028F8019B99E722A8019347
:1020800000F012F8019BA3E700F1340191E8380059
:102090009C46A6464CF8045D90E8FF0FE54600BD5F
:1020A00090EC210B704700BF80EC210B704700BF04
:1020B00090EC200B704700BF80EC200B704700BFF6
:1020C000D0EC200B704700BFC0EC200B704700BF66
:1020D000F0EC0201F0EC0211F0EC0221F0EC023124
:1020E000F0EC0241F0EC0251F0EC0261F0EC027114
:1020F000F0EC0281F0EC0291F0EC02A1F0EC02B104
:10210000F0EC02C1F0EC02D1F0EC02E1F0EC02F1F3
:10211000704700BFE0EC0201E0EC0211E0EC0221AC
:10212000E0EC0231E0EC0241E0EC0251E0EC026153
:10213000E0EC0271E0EC0281E0EC0291E0EC02A143
:10214000E0EC02B1E0EC02C1E0EC02D1E0EC02E133
:10215000E0EC02F1704700BFB0FC0181B0FC0191DE
:10216000B0FC01A1B0FC01B1704700BFA0FC01812F
:10217000A0FC0191A0FC01A1A0FC01B1704700BF2F
:10218000EC4600B52DE900502DE9FF1F4FF000038C
:102190002DE90C0001A9FFF7BFFBDDF840E012B00C
:1021A000704700BFEC4600B52DE900502DE9FF1F38
:1021B0004FF000032DE90C0001A9FFF7E7FBDDF864
:1021C00040E012B0704700BFEC4600B52DE900506A
:1021D0002DE9FF1F4FF000032DE90C0001A9FFF7C7
:1021E000F7FBDDF840E012B0704700BFEC4600B5E9
:1021F0002DE900502DE9FF1F4FF000032DE90C00E1
:1022000001ABFFF7B9FBDDF840E012B0704700BF4B
:10221000EC4600B52DE900502DE9FF1F4FF00003FB
:102220002DE90C0001AAFFF733FCDDF840E012B005
:10223000704700BF037A1BB9437A43B9B020704797
:102240005A1E036802721A020260180E7047426832
:10225000013B10B4437213680321141D01721A026A
:10226000446002605DF8044B180E704700B585B0FD
:1022700003AB002100930C220B46FFF7B9FB039838
:1022800005B05DF804FB00BFF0E700BF2DE9F043A7
:10229000064685B00D464FF000082846FFF7CAFFF6
:1022A000B028044600F0B58020F07F0111F0FF0156
:1022B00020D000F0F003802B7AD0902B36D0A02BCA
:1022C00049D0B02B5CD0C02B00F0898000F0F8031F
:1022D000D02B0BD100F00702013242F4002230462D
:1022E00001210523FFF77CFD0028D6D0092005B089
:1022F000BDE8F0830DF10C090B468700CDF8009086
:1023000030460D22FFF774FBFFB2039BCDF800901F
:10231000043760064FF000014CBFDF1BFF1830464A
:102320000B460D220397FFF78BFBB6E700F00D037A
:102330000D2BDBD003AF002100F00F020B460097FE
:102340003046FFF755FB002100970B4630460D2223
:10235000FFF776FBA1E7C34303F007034FF47F6267
:102360001A41010702F47F624FF0000148BF42F4B6
:1023700080420B463046FFF733FD0028B6D18CE78C
:10238000B1284CD0B2285DD0B32800F08A8000F08C
:10239000FC03B42BAAD000F007020132012142F461
:1023A00000220B463046FFF71BFD00289ED174E744
:1023B0002846FFF73FFF24022043B0F5004F95D099
:1023C00004010021A2B20B463046FFF709FD0028A8
:1023D0008CD114F4004F18BF4FF001085DE7C628F8
:1023E00072D0C7287AD000F0F803C02B00F08980A3
:1023F000C82800F0A580C9287FF478AF2846FFF7E9
:1024000019FF00F00F02013200F0F00042EA003242
:1024100065E7B8F1000F00F08280002067E72846EA
:10242000FFF708FF024600283FF460AF10F0F0010C
:102430007FF45CAF30460B46FFF7D2FC00287FF4F8
:1024400055AF2AE700210DF10C090D220B46CDF8FE
:1024500000903046FFF7CCFA2846FFF7EBFE020665
:102460004FF002040CD5039B00F07F00A040034412
:1024700028460393FFF7DEFE030604F10704F2D4B7
:10248000039BCDF8009000F07F00A04003F501739E
:1024900000211C180D220B4630460394FFF7D0FA9A
:1024A000FBE62846FFF7C6FE00F00F02013200F0FF
:1024B000F000012142EA00320B463046FFF790FC63
:1024C00000287FF413AFE8E62846FFF7B3FE00F0DC
:1024D0000F02013200F0F0000321EBE72846FFF77E
:1024E000A9FE024600283FF401AF10F0F0037FF48C
:1024F000FDAE30460421FFF773FC00287FF4F6AEF2
:10250000CBE600F00F020132032142F420220B46F9
:102510003046FFF765FC00287FF4E8AEBDE603AC6B
:1025200041460E22434600943046FFF761FA00947C
:10253000304641460F224346FFF782FA4046D6E630
:102540002846FFF777FE00F0F00200F00F0310328C
:10255000013343EA0232C2E610B5C36C84B05A6854
:1025600003208DF80C00DC798DF80D401202083341
:10257000084601A901920293FFF788FE04B010BD3E
:1025800008B5FFF781FE806C08BD00BF08B5FFF7F6
:102590007BFEC36CD87903EB8000083008BD00BF18
:1025A00008B500F005F800BF08B500F001F800BF5D
:1025B00008B5062000F07AF8012000F0A3F800002A
:1025C00008B5074B044613B10021AFF30080054B5B
:1025D0001868836A03B19847204600F093F800BF5B
:1025E000000000002427000070B50E4B0E4CE41ACA
:1025F000A41000251E46A54204D056F82530984761
:102600000135F8E700F080F8084C094BE41AA410F3
:1026100000251E46A54204D056F8253098470135BE
:10262000F8E770BD700000207000002074000020EA
:102630007000002010B5431E0A44914204D011F8E6
:10264000014B03F8014FF8E710BD024403469342E3
:1026500002D003F8011BFAE770471F2938B504467A
:102660000D4604D9162303604FF0FF3038BD426C8D
:1026700012B152F821304BB9204600F031F82A4609
:1026800001462046BDE8384000F018B8012B0AD0BA
:10269000591C03D116230360012038BD002442F8E1
:1026A000254028469847002038BD0000024B0146CF
:1026B0001868FFF7D2BF00BF6C00002038B5074C88
:1026C0000023054608461146236000F013F8431C1A
:1026D00002D1236803B12B6038BD00BF9C000020ED
:1026E00000F000B8024B58221A604FF0FF307047DC
:1026F0009C000020024B58221A604FF0FF307047B8
:102700009C000020FEE700BFF8B500BFF8BC08BC85
:102710009E467047F8B500BFF8BC08BC9E4670479F
:0C272000430000000C000020000000003E
:10272C0002970181B0B00984000000000597018177
:10273C00B0B008840000000003970181B0B0088499
:10274C000000000008B10181B0B00084000000005E
:0C275C0008B10181B0B000840000000052
:10276800D4D9FF7F010000004CECFF7FB8FFFF7F4A
:102778007CECFF7F01000000D8ECFF7F0884978085
:1027880038EDFF7FACFFFF7FC4EDFF7F0100000045
:10279800C8EDFF7FA8FFFF7F48EEFF7F0884978082
:1027A80090EEFF7F0100000040EFFF7FB0A902809C
:1027B800D8EFFF7FB0B0A88028F0FF7F01000000AD
:1027C80034F0FF7FB0B0AA806CF0FF7FAE71B280AA
:1027D8003CF1FF7F0100000038F1FF7FAB3F3880FC
:1027E80090F1FF7F010000009CF1FF7FB0B0AA804C
:1027F800D8F1FF7F0100000090F2FF7FAB0EB2809E
:10280800F8F2FF7FB0AF0A80C4F5FF7F0100000037
:10281800C8F5FF7FAB3F048068F8FF7F0100000028
:1028280044FAFF7F0084048058FAFF7F010000000B
:1028380054FAFF7FB0AD048018FDFF7FB0A8038075
:1028480038FDFF7F04FFFF7F3CFDFF7F08FFFF7F10
:0828580048FDFF7F01000000B4
:10286000006CDC0200800000809FD50000000000AA
:102870000000000000000000000000000000000058
:102880000000000000000000000000002027000001
:102890000000000000000000000000000000000038
:1028A0000000000000000000000000000000000028
:1028B0000000000000000000000000000000000018
:1028C0000000000000000000000000000C000020DC
:0C28D00005010000E10000000000000015
:04000003000001B147
:00000001FF
